{
  "contractName": "SkillChain",
  "abi": [
    {
      "inputs": [
        {
          "internalType": "uint256",
          "name": "",
          "type": "uint256"
        }
      ],
      "name": "um",
      "outputs": [
        {
          "internalType": "string",
          "name": "id",
          "type": "string"
        },
        {
          "internalType": "string",
          "name": "fname",
          "type": "string"
        },
        {
          "internalType": "string",
          "name": "lname",
          "type": "string"
        },
        {
          "internalType": "string",
          "name": "number",
          "type": "string"
        },
        {
          "internalType": "string",
          "name": "uaddress",
          "type": "string"
        },
        {
          "internalType": "string",
          "name": "anumber",
          "type": "string"
        },
        {
          "internalType": "string",
          "name": "pass",
          "type": "string"
        },
        {
          "internalType": "string",
          "name": "usertype",
          "type": "string"
        }
      ],
      "stateMutability": "view",
      "type": "function",
      "constant": true
    },
    {
      "inputs": [
        {
          "internalType": "string",
          "name": "_id",
          "type": "string"
        },
        {
          "internalType": "string",
          "name": "_pass",
          "type": "string"
        },
        {
          "internalType": "string",
          "name": "_fname",
          "type": "string"
        },
        {
          "internalType": "string",
          "name": "_lname",
          "type": "string"
        },
        {
          "internalType": "string",
          "name": "_uaddress",
          "type": "string"
        },
        {
          "internalType": "string",
          "name": "_number",
          "type": "string"
        },
        {
          "internalType": "string",
          "name": "_anumber",
          "type": "string"
        },
        {
          "internalType": "string",
          "name": "_usertype",
          "type": "string"
        }
      ],
      "name": "newUser",
      "outputs": [],
      "stateMutability": "nonpayable",
      "type": "function"
    },
    {
      "inputs": [
        {
          "internalType": "uint256",
          "name": "_jobid",
          "type": "uint256"
        },
        {
          "internalType": "uint256",
          "name": "_userid",
          "type": "uint256"
        },
        {
          "internalType": "bytes32",
          "name": "_jname",
          "type": "bytes32"
        }
      ],
      "name": "jobApplied",
      "outputs": [],
      "stateMutability": "nonpayable",
      "type": "function"
    },
    {
      "inputs": [
        {
          "internalType": "bytes32",
          "name": "_jobname",
          "type": "bytes32"
        },
        {
          "internalType": "bytes32",
          "name": "_jobloc",
          "type": "bytes32"
        },
        {
          "internalType": "uint256",
          "name": "_jobduration",
          "type": "uint256"
        },
        {
          "internalType": "uint256",
          "name": "_jobwage",
          "type": "uint256"
        },
        {
          "internalType": "bytes32",
          "name": "_jobcontactpersion",
          "type": "bytes32"
        },
        {
          "internalType": "uint256",
          "name": "_jobcontact",
          "type": "uint256"
        }
      ],
      "name": "newJobpool",
      "outputs": [],
      "stateMutability": "nonpayable",
      "type": "function"
    },
    {
      "inputs": [
        {
          "internalType": "uint256",
          "name": "_jobid",
          "type": "uint256"
        },
        {
          "internalType": "uint256",
          "name": "_userid",
          "type": "uint256"
        },
        {
          "internalType": "bytes32",
          "name": "_jname",
          "type": "bytes32"
        },
        {
          "internalType": "uint256",
          "name": "_cuserid",
          "type": "uint256"
        },
        {
          "internalType": "uint256",
          "name": "_rateing",
          "type": "uint256"
        },
        {
          "internalType": "bytes32",
          "name": "_comment",
          "type": "bytes32"
        }
      ],
      "name": "newWorkmenRating",
      "outputs": [],
      "stateMutability": "nonpayable",
      "type": "function"
    },
    {
      "inputs": [],
      "name": "jobPoolCount",
      "outputs": [
        {
          "internalType": "uint256",
          "name": "",
          "type": "uint256"
        }
      ],
      "stateMutability": "view",
      "type": "function",
      "constant": true
    },
    {
      "inputs": [],
      "name": "workmenRatingCount",
      "outputs": [
        {
          "internalType": "uint256",
          "name": "",
          "type": "uint256"
        }
      ],
      "stateMutability": "view",
      "type": "function",
      "constant": true
    },
    {
      "inputs": [
        {
          "internalType": "uint256",
          "name": "id",
          "type": "uint256"
        }
      ],
      "name": "getRating",
      "outputs": [
        {
          "internalType": "uint256",
          "name": "",
          "type": "uint256"
        },
        {
          "internalType": "uint256",
          "name": "",
          "type": "uint256"
        },
        {
          "internalType": "bytes32",
          "name": "",
          "type": "bytes32"
        },
        {
          "internalType": "uint256",
          "name": "",
          "type": "uint256"
        },
        {
          "internalType": "uint256",
          "name": "",
          "type": "uint256"
        },
        {
          "internalType": "bytes32",
          "name": "",
          "type": "bytes32"
        }
      ],
      "stateMutability": "view",
      "type": "function",
      "constant": true
    },
    {
      "inputs": [
        {
          "internalType": "uint256",
          "name": "id",
          "type": "uint256"
        }
      ],
      "name": "getJobs",
      "outputs": [
        {
          "internalType": "uint256",
          "name": "",
          "type": "uint256"
        },
        {
          "internalType": "bytes32",
          "name": "",
          "type": "bytes32"
        },
        {
          "internalType": "bytes32",
          "name": "",
          "type": "bytes32"
        },
        {
          "internalType": "uint256",
          "name": "",
          "type": "uint256"
        },
        {
          "internalType": "uint256",
          "name": "",
          "type": "uint256"
        },
        {
          "internalType": "bytes32",
          "name": "",
          "type": "bytes32"
        },
        {
          "internalType": "uint256",
          "name": "",
          "type": "uint256"
        }
      ],
      "stateMutability": "view",
      "type": "function",
      "constant": true
    },
    {
      "inputs": [
        {
          "internalType": "string",
          "name": "id",
          "type": "string"
        }
      ],
      "name": "getUser",
      "outputs": [
        {
          "internalType": "string",
          "name": "",
          "type": "string"
        },
        {
          "internalType": "string",
          "name": "",
          "type": "string"
        },
        {
          "internalType": "string",
          "name": "",
          "type": "string"
        },
        {
          "internalType": "string",
          "name": "",
          "type": "string"
        },
        {
          "internalType": "string",
          "name": "",
          "type": "string"
        },
        {
          "internalType": "string",
          "name": "",
          "type": "string"
        }
      ],
      "stateMutability": "view",
      "type": "function",
      "constant": true
    },
    {
      "inputs": [
        {
          "internalType": "string",
          "name": "id",
          "type": "string"
        }
      ],
      "name": "getusertype",
      "outputs": [
        {
          "internalType": "string",
          "name": "",
          "type": "string"
        },
        {
          "internalType": "string",
          "name": "",
          "type": "string"
        }
      ],
      "stateMutability": "view",
      "type": "function",
      "constant": true
    },
    {
      "inputs": [
        {
          "internalType": "uint256",
          "name": "pkey",
          "type": "uint256"
        }
      ],
      "name": "getapplied",
      "outputs": [
        {
          "internalType": "uint256",
          "name": "",
          "type": "uint256"
        },
        {
          "internalType": "uint256",
          "name": "",
          "type": "uint256"
        },
        {
          "internalType": "bytes32",
          "name": "",
          "type": "bytes32"
        }
      ],
      "stateMutability": "view",
      "type": "function",
      "constant": true
    },
    {
      "inputs": [
        {
          "internalType": "uint256",
          "name": "_id",
          "type": "uint256"
        }
      ],
      "name": "getRatings",
      "outputs": [
        {
          "internalType": "uint256",
          "name": "",
          "type": "uint256"
        }
      ],
      "stateMutability": "view",
      "type": "function",
      "constant": true
    }
  ],
  "bytecode": "0x6080604052600080556000600460006101000a8154816fffffffffffffffffffffffffffffffff02191690836fffffffffffffffffffffffffffffffff16021790555034801561004e57600080fd5b5061208c8061005e6000396000f3fe608060405234801561001057600080fd5b50600436106100cf5760003560e01c8063925eaebf1161008c578063b0ee0e9f11610066578063b0ee0e9f14610233578063d18e250914610268578063dca2277b14610298578063ec26a3db146102b4576100cf565b8063925eaebf146101ac578063985d57cd146101e3578063a73b54c314610215576100cf565b806306fa2499146100d457806314d65208146100f057806331feb6711461010c578063409138051461014157806345f8b73b1461015f5780634c2101171461017b575b600080fd5b6100ee60048036038101906100e991906113d0565b6102ea565b005b61010a6004803603810190610105919061145d565b61039d565b005b61012660048036038101906101219190611630565b6104f9565b604051610138969594939291906116f8565b60405180910390f35b610149610925565b6040516101569190611792565b60405180910390f35b610179600480360381019061017491906117ad565b61095d565b005b61019560048036038101906101909190611630565b610a72565b6040516101a3929190611943565b60405180910390f35b6101c660048036038101906101c1919061197a565b610bd8565b6040516101da9897969594939291906119a7565b60405180910390f35b6101fd60048036038101906101f8919061197a565b611070565b60405161020c93929190611a6c565b60405180910390f35b61021d6110c7565b60405161022a9190611792565b60405180910390f35b61024d6004803603810190610248919061197a565b6110d1565b60405161025f96959493929190611aa3565b60405180910390f35b610282600480360381019061027d919061197a565b611179565b60405161028f9190611792565b60405180910390f35b6102b260048036038101906102ad9190611b04565b61120d565b005b6102ce60048036038101906102c9919061197a565b61128b565b6040516102e19796959493929190611b57565b60405180910390f35b600660008154809291906102fd90611bf5565b91905055506040518060e00160405280600654815260200187815260200186815260200185815260200184815260200183815260200182815250600760006006548152602001908152602001600020600082015181600001556020820151816001015560408201518160020155606082015181600301556080820151816004015560a0820151816005015560c08201518160060155905050505050505050565b6004600081819054906101000a90046fffffffffffffffffffffffffffffffff16809291906103cb90611c59565b91906101000a8154816fffffffffffffffffffffffffffffffff02191690836fffffffffffffffffffffffffffffffff160217905550506040518060e00160405280600460009054906101000a90046fffffffffffffffffffffffffffffffff166fffffffffffffffffffffffffffffffff1681526020018781526020018681526020018581526020018481526020018381526020018281525060056000600460009054906101000a90046fffffffffffffffffffffffffffffffff166fffffffffffffffffffffffffffffffff168152602001908152602001600020600082015181600001556020820151816001015560408201518160020155606082015181600301556080820151816004015560a0820151816005015560c08201518160060155905050505050505050565b6060806060806060806002876040516105129190611ccd565b90815260200160405180910390206001016002886040516105339190611ccd565b90815260200160405180910390206002016002896040516105549190611ccd565b908152602001604051809103902060030160028a6040516105759190611ccd565b908152602001604051809103902060040160028b6040516105969190611ccd565b908152602001604051809103902060050160028c6040516105b79190611ccd565b90815260200160405180910390206007018580546105d490611d13565b80601f016020809104026020016040519081016040528092919081815260200182805461060090611d13565b801561064d5780601f106106225761010080835404028352916020019161064d565b820191906000526020600020905b81548152906001019060200180831161063057829003601f168201915b5050505050955084805461066090611d13565b80601f016020809104026020016040519081016040528092919081815260200182805461068c90611d13565b80156106d95780601f106106ae576101008083540402835291602001916106d9565b820191906000526020600020905b8154815290600101906020018083116106bc57829003601f168201915b505050505094508380546106ec90611d13565b80601f016020809104026020016040519081016040528092919081815260200182805461071890611d13565b80156107655780601f1061073a57610100808354040283529160200191610765565b820191906000526020600020905b81548152906001019060200180831161074857829003601f168201915b5050505050935082805461077890611d13565b80601f01602080910402602001604051908101604052809291908181526020018280546107a490611d13565b80156107f15780601f106107c6576101008083540402835291602001916107f1565b820191906000526020600020905b8154815290600101906020018083116107d457829003601f168201915b5050505050925081805461080490611d13565b80601f016020809104026020016040519081016040528092919081815260200182805461083090611d13565b801561087d5780601f106108525761010080835404028352916020019161087d565b820191906000526020600020905b81548152906001019060200180831161086057829003601f168201915b5050505050915080805461089090611d13565b80601f01602080910402602001604051908101604052809291908181526020018280546108bc90611d13565b80156109095780601f106108de57610100808354040283529160200191610909565b820191906000526020600020905b8154815290600101906020018083116108ec57829003601f168201915b5050505050905095509550955095509550955091939550919395565b6000600460009054906101000a90046fffffffffffffffffffffffffffffffff166fffffffffffffffffffffffffffffffff16905090565b604051806101000160405280898152602001878152602001868152602001848152602001858152602001838152602001888152602001828152506002896040516109a79190611ccd565b908152602001604051809103902060008201518160000190816109ca9190611ef0565b5060208201518160010190816109e09190611ef0565b5060408201518160020190816109f69190611ef0565b506060820151816003019081610a0c9190611ef0565b506080820151816004019081610a229190611ef0565b5060a0820151816005019081610a389190611ef0565b5060c0820151816006019081610a4e9190611ef0565b5060e0820151816007019081610a649190611ef0565b509050505050505050505050565b606080600283604051610a859190611ccd565b9081526020016040518091039020600601600284604051610aa69190611ccd565b9081526020016040518091039020600701818054610ac390611d13565b80601f0160208091040260200160405190810160405280929190818152602001828054610aef90611d13565b8015610b3c5780601f10610b1157610100808354040283529160200191610b3c565b820191906000526020600020905b815481529060010190602001808311610b1f57829003601f168201915b50505050509150808054610b4f90611d13565b80601f0160208091040260200160405190810160405280929190818152602001828054610b7b90611d13565b8015610bc85780601f10610b9d57610100808354040283529160200191610bc8565b820191906000526020600020905b815481529060010190602001808311610bab57829003601f168201915b5050505050905091509150915091565b60038181548110610be857600080fd5b9060005260206000209060080201600091509050806000018054610c0b90611d13565b80601f0160208091040260200160405190810160405280929190818152602001828054610c3790611d13565b8015610c845780601f10610c5957610100808354040283529160200191610c84565b820191906000526020600020905b815481529060010190602001808311610c6757829003601f168201915b505050505090806001018054610c9990611d13565b80601f0160208091040260200160405190810160405280929190818152602001828054610cc590611d13565b8015610d125780601f10610ce757610100808354040283529160200191610d12565b820191906000526020600020905b815481529060010190602001808311610cf557829003601f168201915b505050505090806002018054610d2790611d13565b80601f0160208091040260200160405190810160405280929190818152602001828054610d5390611d13565b8015610da05780601f10610d7557610100808354040283529160200191610da0565b820191906000526020600020905b815481529060010190602001808311610d8357829003601f168201915b505050505090806003018054610db590611d13565b80601f0160208091040260200160405190810160405280929190818152602001828054610de190611d13565b8015610e2e5780601f10610e0357610100808354040283529160200191610e2e565b820191906000526020600020905b815481529060010190602001808311610e1157829003601f168201915b505050505090806004018054610e4390611d13565b80601f0160208091040260200160405190810160405280929190818152602001828054610e6f90611d13565b8015610ebc5780601f10610e9157610100808354040283529160200191610ebc565b820191906000526020600020905b815481529060010190602001808311610e9f57829003601f168201915b505050505090806005018054610ed190611d13565b80601f0160208091040260200160405190810160405280929190818152602001828054610efd90611d13565b8015610f4a5780601f10610f1f57610100808354040283529160200191610f4a565b820191906000526020600020905b815481529060010190602001808311610f2d57829003601f168201915b505050505090806006018054610f5f90611d13565b80601f0160208091040260200160405190810160405280929190818152602001828054610f8b90611d13565b8015610fd85780601f10610fad57610100808354040283529160200191610fd8565b820191906000526020600020905b815481529060010190602001808311610fbb57829003601f168201915b505050505090806007018054610fed90611d13565b80601f016020809104026020016040519081016040528092919081815260200182805461101990611d13565b80156110665780601f1061103b57610100808354040283529160200191611066565b820191906000526020600020905b81548152906001019060200180831161104957829003601f168201915b5050505050905088565b60008060006001600085815260200190815260200160002060010154600160008681526020019081526020016000206002015460016000878152602001908152602001600020600301549250925092509193909250565b6000600654905090565b60008060008060008060076000888152602001908152602001600020600101546007600089815260200190815260200160002060020154600760008a815260200190815260200160002060030154600760008b815260200190815260200160002060040154600760008c815260200190815260200160002060050154600760008d81526020019081526020016000206006015495509550955095509550955091939550919395565b600080600080600090505b6006548110156111f157846007600087815260200190815260200160002060010154036111de576007600086815260200190815260200160002060050154836111cd9190611fc2565b925081806111da90611bf5565b9250505b80806111e990611bf5565b915050611184565b50600081836112009190612025565b9050809350505050919050565b60008081548092919061121f90611bf5565b91905055506040518060800160405280600054815260200184815260200183815260200182815250600160008054815260200190815260200160002060008201518160000155602082015181600101556040820151816002015560608201518160030155905050505050565b60008060008060008060006005600089815260200190815260200160002060000154600560008a815260200190815260200160002060010154600560008b815260200190815260200160002060020154600560008c815260200190815260200160002060030154600560008d815260200190815260200160002060040154600560008e815260200190815260200160002060050154600560008f8152602001908152602001600020600601549650965096509650965096509650919395979092949650565b6000604051905090565b600080fd5b600080fd5b6000819050919050565b61137781611364565b811461138257600080fd5b50565b6000813590506113948161136e565b92915050565b6000819050919050565b6113ad8161139a565b81146113b857600080fd5b50565b6000813590506113ca816113a4565b92915050565b60008060008060008060c087890312156113ed576113ec61135a565b5b60006113fb89828a01611385565b965050602061140c89828a01611385565b955050604061141d89828a016113bb565b945050606061142e89828a01611385565b935050608061143f89828a01611385565b92505060a061145089828a016113bb565b9150509295509295509295565b60008060008060008060c0878903121561147a5761147961135a565b5b600061148889828a016113bb565b965050602061149989828a016113bb565b95505060406114aa89828a01611385565b94505060606114bb89828a01611385565b93505060806114cc89828a016113bb565b92505060a06114dd89828a01611385565b9150509295509295509295565b600080fd5b600080fd5b6000601f19601f8301169050919050565b7f4e487b7100000000000000000000000000000000000000000000000000000000600052604160045260246000fd5b61153d826114f4565b810181811067ffffffffffffffff8211171561155c5761155b611505565b5b80604052505050565b600061156f611350565b905061157b8282611534565b919050565b600067ffffffffffffffff82111561159b5761159a611505565b5b6115a4826114f4565b9050602081019050919050565b82818337600083830152505050565b60006115d36115ce84611580565b611565565b9050828152602081018484840111156115ef576115ee6114ef565b5b6115fa8482856115b1565b509392505050565b600082601f830112611617576116166114ea565b5b81356116278482602086016115c0565b91505092915050565b6000602082840312156116465761164561135a565b5b600082013567ffffffffffffffff8111156116645761166361135f565b5b61167084828501611602565b91505092915050565b600081519050919050565b600082825260208201905092915050565b60005b838110156116b3578082015181840152602081019050611698565b60008484015250505050565b60006116ca82611679565b6116d48185611684565b93506116e4818560208601611695565b6116ed816114f4565b840191505092915050565b600060c082019050818103600083015261171281896116bf565b9050818103602083015261172681886116bf565b9050818103604083015261173a81876116bf565b9050818103606083015261174e81866116bf565b9050818103608083015261176281856116bf565b905081810360a083015261177681846116bf565b9050979650505050505050565b61178c81611364565b82525050565b60006020820190506117a76000830184611783565b92915050565b600080600080600080600080610100898b0312156117ce576117cd61135a565b5b600089013567ffffffffffffffff8111156117ec576117eb61135f565b5b6117f88b828c01611602565b985050602089013567ffffffffffffffff8111156118195761181861135f565b5b6118258b828c01611602565b975050604089013567ffffffffffffffff8111156118465761184561135f565b5b6118528b828c01611602565b965050606089013567ffffffffffffffff8111156118735761187261135f565b5b61187f8b828c01611602565b955050608089013567ffffffffffffffff8111156118a05761189f61135f565b5b6118ac8b828c01611602565b94505060a089013567ffffffffffffffff8111156118cd576118cc61135f565b5b6118d98b828c01611602565b93505060c089013567ffffffffffffffff8111156118fa576118f961135f565b5b6119068b828c01611602565b92505060e089013567ffffffffffffffff8111156119275761192661135f565b5b6119338b828c01611602565b9150509295985092959890939650565b6000604082019050818103600083015261195d81856116bf565b9050818103602083015261197181846116bf565b90509392505050565b6000602082840312156119905761198f61135a565b5b600061199e84828501611385565b91505092915050565b60006101008201905081810360008301526119c2818b6116bf565b905081810360208301526119d6818a6116bf565b905081810360408301526119ea81896116bf565b905081810360608301526119fe81886116bf565b90508181036080830152611a1281876116bf565b905081810360a0830152611a2681866116bf565b905081810360c0830152611a3a81856116bf565b905081810360e0830152611a4e81846116bf565b90509998505050505050505050565b611a668161139a565b82525050565b6000606082019050611a816000830186611783565b611a8e6020830185611783565b611a9b6040830184611a5d565b949350505050565b600060c082019050611ab86000830189611783565b611ac56020830188611783565b611ad26040830187611a5d565b611adf6060830186611783565b611aec6080830185611783565b611af960a0830184611a5d565b979650505050505050565b600080600060608486031215611b1d57611b1c61135a565b5b6000611b2b86828701611385565b9350506020611b3c86828701611385565b9250506040611b4d868287016113bb565b9150509250925092565b600060e082019050611b6c600083018a611783565b611b796020830189611a5d565b611b866040830188611a5d565b611b936060830187611783565b611ba06080830186611783565b611bad60a0830185611a5d565b611bba60c0830184611783565b98975050505050505050565b7f4e487b7100000000000000000000000000000000000000000000000000000000600052601160045260246000fd5b6000611c0082611364565b91507fffffffffffffffffffffffffffffffffffffffffffffffffffffffffffffffff8203611c3257611c31611bc6565b5b600182019050919050565b60006fffffffffffffffffffffffffffffffff82169050919050565b6000611c6482611c3d565b91506fffffffffffffffffffffffffffffffff8203611c8657611c85611bc6565b5b600182019050919050565b600081905092915050565b6000611ca782611679565b611cb18185611c91565b9350611cc1818560208601611695565b80840191505092915050565b6000611cd98284611c9c565b915081905092915050565b7f4e487b7100000000000000000000000000000000000000000000000000000000600052602260045260246000fd5b60006002820490506001821680611d2b57607f821691505b602082108103611d3e57611d3d611ce4565b5b50919050565b60008190508160005260206000209050919050565b60006020601f8301049050919050565b600082821b905092915050565b600060088302611da67fffffffffffffffffffffffffffffffffffffffffffffffffffffffffffffffff82611d69565b611db08683611d69565b95508019841693508086168417925050509392505050565b6000819050919050565b6000611ded611de8611de384611364565b611dc8565b611364565b9050919050565b6000819050919050565b611e0783611dd2565b611e1b611e1382611df4565b848454611d76565b825550505050565b600090565b611e30611e23565b611e3b818484611dfe565b505050565b5b81811015611e5f57611e54600082611e28565b600181019050611e41565b5050565b601f821115611ea457611e7581611d44565b611e7e84611d59565b81016020851015611e8d578190505b611ea1611e9985611d59565b830182611e40565b50505b505050565b600082821c905092915050565b6000611ec760001984600802611ea9565b1980831691505092915050565b6000611ee08383611eb6565b9150826002028217905092915050565b611ef982611679565b67ffffffffffffffff811115611f1257611f11611505565b5b611f1c8254611d13565b611f27828285611e63565b600060209050601f831160018114611f5a5760008415611f48578287015190505b611f528582611ed4565b865550611fba565b601f198416611f6886611d44565b60005b82811015611f9057848901518255600182019150602085019450602081019050611f6b565b86831015611fad5784890151611fa9601f891682611eb6565b8355505b6001600288020188555050505b505050505050565b6000611fcd82611364565b9150611fd883611364565b9250828201905080821115611ff057611fef611bc6565b5b92915050565b7f4e487b7100000000000000000000000000000000000000000000000000000000600052601260045260246000fd5b600061203082611364565b915061203b83611364565b92508261204b5761204a611ff6565b5b82820490509291505056fea26469706673582212208ec9c8a50c0c4ff4abc742e62e029a971e56bd1ffd74e39a3eb2e3941eecd5cf64736f6c63430008110033",
  "immutableReferences": {},
  "source": "// SPDX-License-Identifier: Unlicensed\npragma solidity 0.8.17;\n\ncontract SkillChain {\n    struct user {\n        string id;\n        string fname;\n        string lname;\n        string number;\n        string uaddress;\n        string anumber;\n        string pass;\n        string usertype;\n    }\n\n    struct jobpool {\n        uint256 jobid;\n        bytes32 jobname;\n        bytes32 jobloc;\n        uint256 jobduration;\n        uint256 jobwage;\n        bytes32 jobcontactpersion;\n        uint256 jobcontact;\n    }\n\n    struct workmen_rating {\n        uint256 prkey;\n        uint256 jobid;\n        uint256 userid;\n        bytes32 jname;\n        uint256 cuserid;\n        uint rateing;\n        bytes32 comment;\n    }\n\n    struct applied {\n        uint256 pkey;\n        uint256 jobid;\n        uint256 userid;\n        bytes32 jname;\n    }\n\n    uint256 applied_count = 0;\n    mapping(uint256 => applied) m_applied;\n\n    mapping(string => user) m_user;\n    user[] public um;\n\n    uint128 jobpool_count = 0;\n    mapping(uint256 => jobpool) m_jobpool;\n\n    uint256 workmen_rating_count;\n    mapping(uint256 => workmen_rating) m_workmen_rating;\n\n    function newUser(\n        string memory _id,\n        string memory _pass,\n        string memory _fname,\n        string memory _lname,\n        string memory _uaddress,\n        string memory _number,\n        string memory _anumber,\n        string memory _usertype\n    ) public {\n        m_user[_id] = user(\n            _id,\n            _fname,\n            _lname,\n            _number,\n            _uaddress,\n            _anumber,\n            _pass,\n            _usertype\n        );\n    }\n\n    function jobApplied(\n        uint256 _jobid,\n        uint256 _userid,\n        bytes32 _jname\n    ) public {\n        applied_count++;\n        m_applied[applied_count] = applied(\n            applied_count,\n            _jobid,\n            _userid,\n            _jname\n        );\n    }\n\n    function newJobpool(\n        bytes32 _jobname,\n        bytes32 _jobloc,\n        uint256 _jobduration,\n        uint256 _jobwage,\n        bytes32 _jobcontactpersion,\n        uint256 _jobcontact\n    ) public {\n        jobpool_count++;\n        m_jobpool[jobpool_count] = jobpool(\n            jobpool_count,\n            _jobname,\n            _jobloc,\n            _jobduration,\n            _jobwage,\n            _jobcontactpersion,\n            _jobcontact\n        );\n    }\n\n    function newWorkmenRating(\n        uint256 _jobid,\n        uint256 _userid,\n        bytes32 _jname,\n        uint256 _cuserid,\n        uint _rateing,\n        bytes32 _comment\n    ) public {\n        workmen_rating_count++;\n        m_workmen_rating[workmen_rating_count] = workmen_rating(\n            workmen_rating_count,\n            _jobid,\n            _userid,\n            _jname,\n            _cuserid,\n            _rateing,\n            _comment\n        );\n    }\n\n    function jobPoolCount() public view returns (uint256) {\n        return jobpool_count;\n    }\n\n    function workmenRatingCount() public view returns (uint256) {\n        return workmen_rating_count;\n    }\n\n    function getRating(uint256 id)\n        public\n        view\n        returns (\n            uint256,\n            uint256,\n            bytes32,\n            uint256,\n            uint,\n            bytes32\n        )\n    {\n        return (\n            m_workmen_rating[id].jobid,\n            m_workmen_rating[id].userid,\n            m_workmen_rating[id].jname,\n            m_workmen_rating[id].cuserid,\n            m_workmen_rating[id].rateing,\n            m_workmen_rating[id].comment\n        );\n    }\n\n    function getJobs(uint256 id)\n        public\n        view\n        returns (\n            uint256,\n            bytes32,\n            bytes32,\n            uint256,\n            uint256,\n            bytes32,\n            uint256\n        )\n    {\n        return (\n            m_jobpool[id].jobid,\n            m_jobpool[id].jobname,\n            m_jobpool[id].jobloc,\n            m_jobpool[id].jobduration,\n            m_jobpool[id].jobwage,\n            m_jobpool[id].jobcontactpersion,\n            m_jobpool[id].jobcontact\n        );\n    }\n\n    function getUser(string memory id)\n        public\n        view\n        returns (\n            string memory,\n            string memory,\n            string memory,\n            string memory,\n            string memory,\n            string memory\n        )\n    {\n        return (\n            m_user[id].fname,\n            m_user[id].lname,\n            m_user[id].number,\n            m_user[id].uaddress,\n            m_user[id].anumber,\n            m_user[id].usertype\n        );\n    }\n\n    function getusertype(string memory id)\n        public\n        view\n        returns (string memory, string memory)\n    {\n        return (m_user[id].pass, m_user[id].usertype);\n    }\n\n    function getapplied(uint256 pkey)\n        public\n        view\n        returns (\n            uint256,\n            uint256,\n            bytes32\n        )\n    {\n        return (\n            m_applied[pkey].jobid,\n            m_applied[pkey].userid,\n            m_applied[pkey].jname\n        );\n    }\n\n    function getRatings(uint256 _id) public view returns (uint256) {\n        uint256 workerrating;\n        uint256 dcount;\n        for (uint i = 0; i < workmen_rating_count; i++) {\n            if (m_workmen_rating[_id].jobid == _id) {\n                workerrating = workerrating + m_workmen_rating[_id].rateing;\n                dcount++;\n            }\n        }\n        uint rating = workerrating / dcount;\n        return rating;\n    }\n}\n",
  "sourcePath": "C:\\Lab\\SkillChain-master\\contracts\\SkillChain.sol",
  "compiler": {
    "name": "solc",
    "version": "0.8.17+commit.8df45f5f.Emscripten.clang"
  },
  "schemaVersion": "3.4.7",
  "updatedAt": "2022-10-12T08:08:41.936Z",
  "networkType": "ethereum",
  "devdoc": {
    "kind": "dev",
    "methods": {},
    "version": 1
  },
  "userdoc": {
    "kind": "user",
    "methods": {},
    "version": 1
  }
}