{
  "contractName": "SkillChain",
  "abi": [
    {
      "constant": true,
      "inputs": [
        {
          "name": "",
          "type": "uint256"
        }
      ],
      "name": "um",
      "outputs": [
        {
          "name": "id",
          "type": "uint256"
        },
        {
          "name": "fname",
          "type": "bytes32"
        },
        {
          "name": "lname",
          "type": "bytes32"
        },
        {
          "name": "number",
          "type": "uint256"
        },
        {
          "name": "uaddress",
          "type": "bytes32"
        },
        {
          "name": "anumber",
          "type": "uint256"
        },
        {
          "name": "pass",
          "type": "bytes32"
        },
        {
          "name": "usertype",
          "type": "bytes32"
        }
      ],
      "payable": false,
      "stateMutability": "view",
      "type": "function",
      "signature": "0x925eaebf"
    },
    {
      "constant": false,
      "inputs": [
        {
          "name": "_id",
          "type": "uint256"
        },
        {
          "name": "_pass",
          "type": "bytes32"
        },
        {
          "name": "_fname",
          "type": "bytes32"
        },
        {
          "name": "_lname",
          "type": "bytes32"
        },
        {
          "name": "_uaddress",
          "type": "bytes32"
        },
        {
          "name": "_number",
          "type": "uint256"
        },
        {
          "name": "_anumber",
          "type": "uint256"
        },
        {
          "name": "_usertype",
          "type": "bytes32"
        }
      ],
      "name": "newUser",
      "outputs": [],
      "payable": false,
      "stateMutability": "nonpayable",
      "type": "function",
      "signature": "0x1bed00fd"
    },
    {
      "constant": false,
      "inputs": [
        {
          "name": "_jobid",
          "type": "uint256"
        },
        {
          "name": "_userid",
          "type": "uint256"
        },
        {
          "name": "_jname",
          "type": "bytes32"
        }
      ],
      "name": "jobApplied",
      "outputs": [],
      "payable": false,
      "stateMutability": "nonpayable",
      "type": "function",
      "signature": "0xdca2277b"
    },
    {
      "constant": false,
      "inputs": [
        {
          "name": "_jobname",
          "type": "bytes32"
        },
        {
          "name": "_jobloc",
          "type": "bytes32"
        },
        {
          "name": "_jobduration",
          "type": "uint256"
        },
        {
          "name": "_jobwage",
          "type": "uint256"
        },
        {
          "name": "_jobcontactpersion",
          "type": "bytes32"
        },
        {
          "name": "_jobcontact",
          "type": "uint256"
        }
      ],
      "name": "newJobpool",
      "outputs": [],
      "payable": false,
      "stateMutability": "nonpayable",
      "type": "function",
      "signature": "0x14d65208"
    },
    {
      "constant": false,
      "inputs": [
        {
          "name": "_jobid",
          "type": "uint256"
        },
        {
          "name": "_userid",
          "type": "uint256"
        },
        {
          "name": "_jname",
          "type": "bytes32"
        },
        {
          "name": "_cuserid",
          "type": "uint256"
        },
        {
          "name": "_rateing",
          "type": "uint256"
        },
        {
          "name": "_comment",
          "type": "bytes32"
        }
      ],
      "name": "newWorkmenRating",
      "outputs": [],
      "payable": false,
      "stateMutability": "nonpayable",
      "type": "function",
      "signature": "0x06fa2499"
    },
    {
      "constant": true,
      "inputs": [],
      "name": "jobPoolCount",
      "outputs": [
        {
          "name": "",
          "type": "uint256"
        }
      ],
      "payable": false,
      "stateMutability": "view",
      "type": "function",
      "signature": "0x40913805"
    },
    {
      "constant": true,
      "inputs": [],
      "name": "workmenRatingCount",
      "outputs": [
        {
          "name": "",
          "type": "uint256"
        }
      ],
      "payable": false,
      "stateMutability": "view",
      "type": "function",
      "signature": "0xa73b54c3"
    },
    {
      "constant": true,
      "inputs": [
        {
          "name": "id",
          "type": "uint256"
        }
      ],
      "name": "getRating",
      "outputs": [
        {
          "name": "",
          "type": "uint256"
        },
        {
          "name": "",
          "type": "uint256"
        },
        {
          "name": "",
          "type": "bytes32"
        },
        {
          "name": "",
          "type": "uint256"
        },
        {
          "name": "",
          "type": "uint256"
        },
        {
          "name": "",
          "type": "bytes32"
        }
      ],
      "payable": false,
      "stateMutability": "view",
      "type": "function",
      "signature": "0xb0ee0e9f"
    },
    {
      "constant": true,
      "inputs": [
        {
          "name": "id",
          "type": "uint256"
        }
      ],
      "name": "getJobs",
      "outputs": [
        {
          "name": "",
          "type": "uint256"
        },
        {
          "name": "",
          "type": "bytes32"
        },
        {
          "name": "",
          "type": "bytes32"
        },
        {
          "name": "",
          "type": "uint256"
        },
        {
          "name": "",
          "type": "uint256"
        },
        {
          "name": "",
          "type": "bytes32"
        },
        {
          "name": "",
          "type": "uint256"
        }
      ],
      "payable": false,
      "stateMutability": "view",
      "type": "function",
      "signature": "0xec26a3db"
    },
    {
      "constant": true,
      "inputs": [
        {
          "name": "id",
          "type": "uint256"
        }
      ],
      "name": "getUser",
      "outputs": [
        {
          "name": "",
          "type": "bytes32"
        },
        {
          "name": "",
          "type": "bytes32"
        },
        {
          "name": "",
          "type": "uint256"
        },
        {
          "name": "",
          "type": "bytes32"
        },
        {
          "name": "",
          "type": "uint256"
        },
        {
          "name": "",
          "type": "bytes32"
        }
      ],
      "payable": false,
      "stateMutability": "view",
      "type": "function",
      "signature": "0xb0467deb"
    },
    {
      "constant": true,
      "inputs": [
        {
          "name": "id",
          "type": "uint256"
        }
      ],
      "name": "getusertype",
      "outputs": [
        {
          "name": "",
          "type": "bytes32"
        },
        {
          "name": "",
          "type": "bytes32"
        }
      ],
      "payable": false,
      "stateMutability": "view",
      "type": "function",
      "signature": "0x35ff8ea0"
    },
    {
      "constant": true,
      "inputs": [
        {
          "name": "pkey",
          "type": "uint256"
        }
      ],
      "name": "getapplied",
      "outputs": [
        {
          "name": "",
          "type": "uint256"
        },
        {
          "name": "",
          "type": "uint256"
        },
        {
          "name": "",
          "type": "bytes32"
        }
      ],
      "payable": false,
      "stateMutability": "view",
      "type": "function",
      "signature": "0x985d57cd"
    },
    {
      "constant": true,
      "inputs": [
        {
          "name": "_id",
          "type": "uint256"
        }
      ],
      "name": "getRatings",
      "outputs": [
        {
          "name": "",
          "type": "uint256"
        }
      ],
      "payable": false,
      "stateMutability": "view",
      "type": "function",
      "signature": "0xd18e2509"
    }
  ],
  "bytecode": "0x6080604052600080556000600460006101000a8154816fffffffffffffffffffffffffffffffff02191690836fffffffffffffffffffffffffffffffff16021790555034801561004e57600080fd5b50610da08061005e6000396000f3fe6080604052600436106100c5576000357c0100000000000000000000000000000000000000000000000000000000900463ffffffff16806306fa2499146100ca57806314d65208146101375780631bed00fd146101a457806335ff8ea014610226578063409138051461027c578063925eaebf146102a7578063985d57cd14610327578063a73b54c314610384578063b0467deb146103af578063b0ee0e9f14610421578063d18e250914610493578063dca2277b146104e2578063ec26a3db14610531575b600080fd5b3480156100d657600080fd5b50610135600480360360c08110156100ed57600080fd5b810190808035906020019092919080359060200190929190803590602001909291908035906020019092919080359060200190929190803590602001909291905050506105aa565b005b34801561014357600080fd5b506101a2600480360360c081101561015a57600080fd5b81019080803590602001909291908035906020019092919080359060200190929190803590602001909291908035906020019092919080359060200190929190505050610658565b005b3480156101b057600080fd5b5061022460048036036101008110156101c857600080fd5b8101908080359060200190929190803590602001909291908035906020019092919080359060200190929190803590602001909291908035906020019092919080359060200190929190803590602001909291905050506107af565b005b34801561023257600080fd5b5061025f6004803603602081101561024957600080fd5b81019080803590602001909291905050506108e7565b604051808381526020018281526020019250505060405180910390f35b34801561028857600080fd5b50610291610921565b6040518082815260200191505060405180910390f35b3480156102b357600080fd5b506102e0600480360360208110156102ca57600080fd5b8101908080359060200190929190505050610959565b604051808981526020018881526020018781526020018681526020018581526020018481526020018381526020018281526020019850505050505050505060405180910390f35b34801561033357600080fd5b506103606004803603602081101561034a57600080fd5b81019080803590602001909291905050506109b0565b60405180848152602001838152602001828152602001935050505060405180910390f35b34801561039057600080fd5b50610399610a07565b6040518082815260200191505060405180910390f35b3480156103bb57600080fd5b506103e8600480360360208110156103d257600080fd5b8101908080359060200190929190505050610a11565b60405180878152602001868152602001858152602001848152602001838152602001828152602001965050505050505060405180910390f35b34801561042d57600080fd5b5061045a6004803603602081101561044457600080fd5b8101908080359060200190929190505050610ab9565b60405180878152602001868152602001858152602001848152602001838152602001828152602001965050505050505060405180910390f35b34801561049f57600080fd5b506104cc600480360360208110156104b657600080fd5b8101908080359060200190929190505050610b61565b6040518082815260200191505060405180910390f35b3480156104ee57600080fd5b5061052f6004803603606081101561050557600080fd5b81019080803590602001909291908035906020019092919080359060200190929190505050610be1565b005b34801561053d57600080fd5b5061056a6004803603602081101561055457600080fd5b8101908080359060200190929190505050610c5a565b6040518088815260200187815260200186815260200185815260200184815260200183815260200182815260200197505050505050505060405180910390f35b60066000815480929190600101919050555060e060405190810160405280600654815260200187815260200186815260200185815260200184815260200183815260200182815250600760006006548152602001908152602001600020600082015181600001556020820151816001015560408201518160020155606082015181600301556080820151816004015560a0820151816005015560c08201518160060155905050505050505050565b6004600081819054906101000a90046fffffffffffffffffffffffffffffffff168092919060010191906101000a8154816fffffffffffffffffffffffffffffffff02191690836fffffffffffffffffffffffffffffffff1602179055505060e060405190810160405280600460009054906101000a90046fffffffffffffffffffffffffffffffff166fffffffffffffffffffffffffffffffff1681526020018781526020018681526020018581526020018481526020018381526020018281525060056000600460009054906101000a90046fffffffffffffffffffffffffffffffff166fffffffffffffffffffffffffffffffff168152602001908152602001600020600082015181600001556020820151816001015560408201518160020155606082015181600301556080820151816004015560a0820151816005015560c08201518160060155905050505050505050565b6107b7610d1f565b610100604051908101604052808a815260200188815260200187815260200185815260200186815260200184815260200189815260200183815250905080600260008b8152602001908152602001600020600082015181600001556020820151816001015560408201518160020155606082015181600301556080820151816004015560a0820151816005015560c0820151816006015560e0820151816007015590505060038190806001815401808255809150509060018203906000526020600020906008020160009091929091909150600082015181600001556020820151816001015560408201518160020155606082015181600301556080820151816004015560a0820151816005015560c0820151816006015560e08201518160070155505050505050505050505050565b6000806002600084815260200190815260200160002060060154600260008581526020019081526020016000206007015491509150915091565b6000600460009054906101000a90046fffffffffffffffffffffffffffffffff166fffffffffffffffffffffffffffffffff16905090565b60038181548110151561096857fe5b90600052602060002090600802016000915090508060000154908060010154908060020154908060030154908060040154908060050154908060060154908060070154905088565b60008060006001600085815260200190815260200160002060010154600160008681526020019081526020016000206002015460016000878152602001908152602001600020600301549250925092509193909250565b6000600654905090565b60008060008060008060026000888152602001908152602001600020600101546002600089815260200190815260200160002060020154600260008a815260200190815260200160002060030154600260008b815260200190815260200160002060040154600260008c815260200190815260200160002060050154600260008d81526020019081526020016000206007015495509550955095509550955091939550919395565b60008060008060008060076000888152602001908152602001600020600101546007600089815260200190815260200160002060020154600760008a815260200190815260200160002060030154600760008b815260200190815260200160002060040154600760008c815260200190815260200160002060050154600760008d81526020019081526020016000206006015495509550955095509550955091939550919395565b600080600080600090505b600654811015610bc5578460076000878152602001908152602001600020600101541415610bb85760076000868152602001908152602001600020600501548301925081806001019250505b8080600101915050610b6c565b5060008183811515610bd357fe5b049050809350505050919050565b6000808154809291906001019190505550608060405190810160405280600054815260200184815260200183815260200182815250600160008054815260200190815260200160002060008201518160000155602082015181600101556040820151816002015560608201518160030155905050505050565b60008060008060008060006005600089815260200190815260200160002060000154600560008a815260200190815260200160002060010154600560008b815260200190815260200160002060020154600560008c815260200190815260200160002060030154600560008d815260200190815260200160002060040154600560008e815260200190815260200160002060050154600560008f8152602001908152602001600020600601549650965096509650965096509650919395979092949650565b610100604051908101604052806000815260200160008019168152602001600080191681526020016000815260200160008019168152602001600081526020016000801916815260200160008019168152509056fea165627a7a72305820734799b78e69150d8fe9dc48c88b046735becab49196d00ee239606df0ac8bb10029",
  "source": "pragma solidity ^0.5.0;\n\ncontract SkillChain {\n\n\tstruct user {\n\t    uint256 id;\n        bytes32 fname;\n        bytes32 lname;\n        uint256 number;\n        bytes32 uaddress;\n        uint256 anumber;\n        bytes32 pass;\n        bytes32 usertype;\n    }\n\n    struct jobpool {\n\t    uint256 jobid;\n        bytes32 jobname; \n        bytes32 jobloc; \n        uint256 jobduration;\n        uint256 jobwage;\n        bytes32 jobcontactpersion;\n        uint256 jobcontact;        \n    }\n\n    struct workmen_rating {\n        uint256 prkey;\n        uint256 jobid;\n        uint256 userid;\n        bytes32 jname;\n        uint256 cuserid;\n        uint rateing;\n        bytes32 comment;\n    }\n\n    struct applied {\n        uint256 pkey;\n        uint256 jobid;\n        uint256 userid;\n        bytes32 jname;\n    }\n\n    \n    uint256 applied_count = 0;\n    mapping(uint256 => applied) m_applied;\n\n    mapping(uint256 => user) m_user;\n    user[] public um;\n\n    uint128 jobpool_count = 0;\n    mapping(uint256 => jobpool) m_jobpool;\n\n    uint256 workmen_rating_count;\n    mapping(uint256 => workmen_rating) m_workmen_rating;\n\n    function newUser (uint256 _id, bytes32 _pass,bytes32 _fname,bytes32 _lname,bytes32 _uaddress,uint256 _number,uint256 _anumber,bytes32 _usertype) public {\n        SkillChain.user memory usernew = user(_id,_fname,_lname,_number,_uaddress,_anumber,_pass,_usertype);\n        m_user[_id] = usernew;\n        um.push(usernew);\n    }\n\n    function jobApplied (uint256 _jobid,uint256 _userid,bytes32 _jname) public {\n        applied_count++;\n        m_applied[applied_count] = applied(applied_count,_jobid,_userid,_jname);\n    }\n\n    function newJobpool (bytes32 _jobname,bytes32 _jobloc,uint256 _jobduration,uint256 _jobwage,bytes32 _jobcontactpersion,uint256 _jobcontact) public {\n        jobpool_count++;\n        m_jobpool[jobpool_count] = jobpool(jobpool_count,_jobname,_jobloc,_jobduration, _jobwage,_jobcontactpersion,_jobcontact);\n    }\n\n    function newWorkmenRating (uint256 _jobid,uint256 _userid,bytes32 _jname,uint256 _cuserid,uint _rateing,bytes32 _comment) public {\n        workmen_rating_count++;\n        m_workmen_rating[workmen_rating_count] = workmen_rating(workmen_rating_count,_jobid,_userid,_jname,_cuserid,_rateing,_comment);\n    }\n\n      function jobPoolCount () view public returns (uint256) {\n        return jobpool_count;\n    }\n      function workmenRatingCount () view public returns (uint256) {\n        return workmen_rating_count;\n    } \n\n    function getRating(uint256 id) view public returns(uint256,uint256,bytes32,uint256,uint,bytes32) {\n         return(m_workmen_rating[id].jobid,m_workmen_rating[id].userid,m_workmen_rating[id].jname,m_workmen_rating[id].cuserid,m_workmen_rating[id].rateing,m_workmen_rating[id].comment);\n    }   \n    \n    function getJobs(uint256 id) view public returns(uint256,bytes32,bytes32,uint256,uint256,bytes32,uint256) {\n        return (m_jobpool[id].jobid, m_jobpool[id].jobname, m_jobpool[id].jobloc, m_jobpool[id].jobduration, m_jobpool[id].jobwage, m_jobpool[id].jobcontactpersion, m_jobpool[id].jobcontact);\n    }\n    \n    function getUser(uint256 id) view public returns(bytes32,bytes32,uint256,bytes32,uint256,bytes32) {\n        return (m_user[id].fname,m_user[id].lname,m_user[id].number,m_user[id].uaddress,m_user[id].anumber,m_user[id].usertype);\n    }\n\n    function getusertype(uint256 id) view public returns(bytes32,bytes32) {\n     return(m_user[id].pass,m_user[id].usertype);     \n    }\n\n     function getapplied(uint256 pkey) view public returns(uint256,uint256,bytes32) {\n     return(m_applied[pkey].jobid,m_applied[pkey].userid,m_applied[pkey].jname);     \n     }\n\n    function getRatings(uint256 _id) view public returns (uint256) {\n        uint256 workerrating;\n        uint256 dcount;\n        for(uint i = 0 ; i < workmen_rating_count; i++) {\n            if(m_workmen_rating[_id].jobid == _id) {\n                workerrating = workerrating + m_workmen_rating[_id].rateing;\n                dcount++;\n            }\n        }\n        uint rating = workerrating / dcount;\n        return rating;\n    }\n    \n\n}\n",
  "sourcePath": "/home/nikhil/Desktop/SkillChain/contracts/SkillChain.sol",
  "compiler": {
    "name": "solc",
    "version": "0.5.0+commit.1d4f565a.Emscripten.clang"
  },
  "schemaVersion": "3.0.2",
  "updatedAt": "2019-03-06T04:57:54.946Z",
  "devdoc": {
    "methods": {}
  },
  "userdoc": {
    "methods": {}
  }
}